{
  "_format": "hh-sol-artifact-1",
  "contractName": "Crowdfunding",
  "sourceName": "contracts/Crowdfunding.sol",
  "abi": [
    {
      "inputs": [
        {
          "internalType": "address",
          "name": "_ktyTokenAddress",
          "type": "address"
        }
      ],
      "stateMutability": "nonpayable",
      "type": "constructor"
    },
    {
      "inputs": [
        {
          "internalType": "uint256",
          "name": "",
          "type": "uint256"
        }
      ],
      "name": "campaigns",
      "outputs": [
        {
          "internalType": "address",
          "name": "owner",
          "type": "address"
        },
        {
          "internalType": "string",
          "name": "title",
          "type": "string"
        },
        {
          "internalType": "string",
          "name": "description",
          "type": "string"
        },
        {
          "internalType": "uint256",
          "name": "target",
          "type": "uint256"
        },
        {
          "internalType": "uint256",
          "name": "deadline",
          "type": "uint256"
        },
        {
          "internalType": "uint256",
          "name": "amountCollected",
          "type": "uint256"
        },
        {
          "internalType": "string",
          "name": "images",
          "type": "string"
        }
      ],
      "stateMutability": "view",
      "type": "function"
    },
    {
      "inputs": [
        {
          "internalType": "address",
          "name": "_owner",
          "type": "address"
        },
        {
          "internalType": "string",
          "name": "_title",
          "type": "string"
        },
        {
          "internalType": "string",
          "name": "_description",
          "type": "string"
        },
        {
          "internalType": "uint256",
          "name": "_target",
          "type": "uint256"
        },
        {
          "internalType": "uint256",
          "name": "_deadline",
          "type": "uint256"
        },
        {
          "internalType": "string",
          "name": "_images",
          "type": "string"
        }
      ],
      "name": "createCampaign",
      "outputs": [
        {
          "internalType": "uint256",
          "name": "",
          "type": "uint256"
        }
      ],
      "stateMutability": "nonpayable",
      "type": "function"
    },
    {
      "inputs": [
        {
          "internalType": "uint256",
          "name": "_id",
          "type": "uint256"
        },
        {
          "internalType": "uint256",
          "name": "_amount",
          "type": "uint256"
        }
      ],
      "name": "donateToCampaign",
      "outputs": [],
      "stateMutability": "nonpayable",
      "type": "function"
    },
    {
      "inputs": [],
      "name": "getCampaigns",
      "outputs": [
        {
          "components": [
            {
              "internalType": "address",
              "name": "owner",
              "type": "address"
            },
            {
              "internalType": "string",
              "name": "title",
              "type": "string"
            },
            {
              "internalType": "string",
              "name": "description",
              "type": "string"
            },
            {
              "internalType": "uint256",
              "name": "target",
              "type": "uint256"
            },
            {
              "internalType": "uint256",
              "name": "deadline",
              "type": "uint256"
            },
            {
              "internalType": "uint256",
              "name": "amountCollected",
              "type": "uint256"
            },
            {
              "internalType": "string",
              "name": "images",
              "type": "string"
            },
            {
              "internalType": "address[]",
              "name": "donators",
              "type": "address[]"
            },
            {
              "internalType": "uint256[]",
              "name": "donations",
              "type": "uint256[]"
            }
          ],
          "internalType": "struct Crowdfunding.Campaign[]",
          "name": "",
          "type": "tuple[]"
        }
      ],
      "stateMutability": "view",
      "type": "function"
    },
    {
      "inputs": [
        {
          "internalType": "uint256",
          "name": "_id",
          "type": "uint256"
        }
      ],
      "name": "getDonators",
      "outputs": [
        {
          "internalType": "address[]",
          "name": "",
          "type": "address[]"
        },
        {
          "internalType": "uint256[]",
          "name": "",
          "type": "uint256[]"
        }
      ],
      "stateMutability": "view",
      "type": "function"
    },
    {
      "inputs": [],
      "name": "getKTYBalance",
      "outputs": [
        {
          "internalType": "uint256",
          "name": "",
          "type": "uint256"
        }
      ],
      "stateMutability": "view",
      "type": "function"
    },
    {
      "inputs": [],
      "name": "ktyToken",
      "outputs": [
        {
          "internalType": "contract KTYToken",
          "name": "",
          "type": "address"
        }
      ],
      "stateMutability": "view",
      "type": "function"
    },
    {
      "inputs": [],
      "name": "ktyTokenAddress",
      "outputs": [
        {
          "internalType": "address",
          "name": "",
          "type": "address"
        }
      ],
      "stateMutability": "view",
      "type": "function"
    },
    {
      "inputs": [],
      "name": "numberOfCampaigns",
      "outputs": [
        {
          "internalType": "uint256",
          "name": "",
          "type": "uint256"
        }
      ],
      "stateMutability": "view",
      "type": "function"
    }
  ],
  "bytecode": "0x6080604052600060015534801561001557600080fd5b5060405161119138038061119183398101604081905261003491610063565b600280546001600160a01b039092166001600160a01b0319928316811790915560038054909216179055610093565b60006020828403121561007557600080fd5b81516001600160a01b038116811461008c57600080fd5b9392505050565b6110ef806100a26000396000f3fe608060405234801561001057600080fd5b50600436106100935760003560e01c80637165bf63116100665780637165bf63146101105780638f9b19871461013b5780639943e3a114610143578063a6b0363314610156578063e86be95d1461016b57600080fd5b806307ca140d146100985780630fa91fa9146100b4578063141961bc146100d55780632b7216e5146100fb575b600080fd5b6100a160015481565b6040519081526020015b60405180910390f35b6100c76100c2366004610a77565b61017e565b6040516100ab929190610a90565b6100e86100e3366004610a77565b61024d565b6040516100ab9796959493929190610b5a565b61010e610109366004610bc4565b61042a565b005b600354610123906001600160a01b031681565b6040516001600160a01b0390911681526020016100ab565b6100a1610559565b6100a1610151366004610c89565b6105cb565b61015e6106ca565b6040516100ab9190610db6565b600254610123906001600160a01b031681565b600081815260208181526040918290206007810180548451818502810185019095528085526060948594929360080192909184918301828280156101eb57602002820191906000526020600020905b81546001600160a01b031681526001909101906020018083116101cd575b505050505091508080548060200260200160405190810160405280929190818152602001828054801561023d57602002820191906000526020600020905b815481526020019060010190808311610229575b5050505050905091509150915091565b600060208190529081526040902080546001820180546001600160a01b03909216929161027990610ec3565b80601f01602080910402602001604051908101604052809291908181526020018280546102a590610ec3565b80156102f25780601f106102c7576101008083540402835291602001916102f2565b820191906000526020600020905b8154815290600101906020018083116102d557829003601f168201915b50505050509080600201805461030790610ec3565b80601f016020809104026020016040519081016040528092919081815260200182805461033390610ec3565b80156103805780601f1061035557610100808354040283529160200191610380565b820191906000526020600020905b81548152906001019060200180831161036357829003601f168201915b5050505050908060030154908060040154908060050154908060060180546103a790610ec3565b80601f01602080910402602001604051908101604052809291908181526020018280546103d390610ec3565b80156104205780601f106103f557610100808354040283529160200191610420565b820191906000526020600020905b81548152906001019060200180831161040357829003601f168201915b5050505050905087565b6000828152602081905260409081902060035491516323b872dd60e01b81523360048201523060248201526044810184905290916001600160a01b0316906323b872dd906064016020604051808303816000875af1158015610490573d6000803e3d6000fd5b505050506040513d601f19601f820116820180604052508101906104b49190610ef7565b6104fd5760405162461bcd60e51b8152602060048201526015602482015274151bdad95b881d1c985b9cd9995c8819985a5b1959605a1b60448201526064015b60405180910390fd5b600781018054600181810183556000928352602080842090920180546001600160a01b03191633179055600884018054918201815583529082200183905560058201805484929061054f908490610f36565b9091555050505050565b6003546040516370a0823160e01b81523060048201526000916001600160a01b0316906370a0823190602401602060405180830381865afa1580156105a2573d6000803e3d6000fd5b505050506040513d601f19601f820116820180604052508101906105c69190610f4f565b905090565b60015460009081526020819052604081204284116106405760405162461bcd60e51b815260206004820152602c60248201527f54686520646561646c696e652073686f756c642062652061206461746520696e60448201526b103a343290333aba3ab9329760a11b60648201526084016104f4565b80546001600160a01b0319166001600160a01b038916178155600181016106678882610fb7565b50600281016106768782610fb7565b506003810185905560048101849055600060058201556006810161069a8482610fb7565b50600180549060006106ab83611077565b9190505550600180546106be9190611090565b98975050505050505050565b6060600060015467ffffffffffffffff8111156106e9576106e9610be6565b60405190808252806020026020018201604052801561077257816020015b61075f60405180610120016040528060006001600160a01b0316815260200160608152602001606081526020016000815260200160008152602001600081526020016060815260200160608152602001606081525090565b8152602001906001900390816107075790505b50905060005b600154811015610a7157600081815260208181526040918290208251610120810190935280546001600160a01b03168352600181018054919392849290840191906107c290610ec3565b80601f01602080910402602001604051908101604052809291908181526020018280546107ee90610ec3565b801561083b5780601f106108105761010080835404028352916020019161083b565b820191906000526020600020905b81548152906001019060200180831161081e57829003601f168201915b5050505050815260200160028201805461085490610ec3565b80601f016020809104026020016040519081016040528092919081815260200182805461088090610ec3565b80156108cd5780601f106108a2576101008083540402835291602001916108cd565b820191906000526020600020905b8154815290600101906020018083116108b057829003601f168201915b5050505050815260200160038201548152602001600482015481526020016005820154815260200160068201805461090490610ec3565b80601f016020809104026020016040519081016040528092919081815260200182805461093090610ec3565b801561097d5780601f106109525761010080835404028352916020019161097d565b820191906000526020600020905b81548152906001019060200180831161096057829003601f168201915b50505050508152602001600782018054806020026020016040519081016040528092919081815260200182805480156109df57602002820191906000526020600020905b81546001600160a01b031681526001909101906020018083116109c1575b5050505050815260200160088201805480602002602001604051908101604052809291908181526020018280548015610a3757602002820191906000526020600020905b815481526020019060010190808311610a23575b505050505081525050838381518110610a5257610a526110a3565b6020026020010181905250508080610a6990611077565b915050610778565b50919050565b600060208284031215610a8957600080fd5b5035919050565b604080825283519082018190526000906020906060840190828701845b82811015610ad25781516001600160a01b031684529284019290840190600101610aad565b5050508381038285015284518082528583019183019060005b81811015610b0757835183529284019291840191600101610aeb565b5090979650505050505050565b6000815180845260005b81811015610b3a57602081850181015186830182015201610b1e565b506000602082860101526020601f19601f83011685010191505092915050565b6001600160a01b038816815260e060208201819052600090610b7e90830189610b14565b8281036040840152610b908189610b14565b90508660608401528560808401528460a084015282810360c0840152610bb68185610b14565b9a9950505050505050505050565b60008060408385031215610bd757600080fd5b50508035926020909101359150565b634e487b7160e01b600052604160045260246000fd5b600082601f830112610c0d57600080fd5b813567ffffffffffffffff80821115610c2857610c28610be6565b604051601f8301601f19908116603f01168101908282118183101715610c5057610c50610be6565b81604052838152866020858801011115610c6957600080fd5b836020870160208301376000602085830101528094505050505092915050565b60008060008060008060c08789031215610ca257600080fd5b86356001600160a01b0381168114610cb957600080fd5b9550602087013567ffffffffffffffff80821115610cd657600080fd5b610ce28a838b01610bfc565b96506040890135915080821115610cf857600080fd5b610d048a838b01610bfc565b9550606089013594506080890135935060a0890135915080821115610d2857600080fd5b50610d3589828a01610bfc565b9150509295509295509295565b600081518084526020808501945080840160005b83811015610d7b5781516001600160a01b031687529582019590820190600101610d56565b509495945050505050565b600081518084526020808501945080840160005b83811015610d7b57815187529582019590820190600101610d9a565b60006020808301818452808551808352604092508286019150828160051b87010184880160005b83811015610eb557888303603f19018552815180516001600160a01b0316845261012088820151818a870152610e1582870182610b14565b9150508782015185820389870152610e2d8282610b14565b606084810151908801526080808501519088015260a0808501519088015260c080850151888303828a01529193509150610e678382610b14565b9250505060e08083015186830382880152610e828382610d42565b925050506101008083015192508582038187015250610ea18183610d86565b968901969450505090860190600101610ddd565b509098975050505050505050565b600181811c90821680610ed757607f821691505b602082108103610a7157634e487b7160e01b600052602260045260246000fd5b600060208284031215610f0957600080fd5b81518015158114610f1957600080fd5b9392505050565b634e487b7160e01b600052601160045260246000fd5b80820180821115610f4957610f49610f20565b92915050565b600060208284031215610f6157600080fd5b5051919050565b601f821115610fb257600081815260208120601f850160051c81016020861015610f8f5750805b601f850160051c820191505b81811015610fae57828155600101610f9b565b5050505b505050565b815167ffffffffffffffff811115610fd157610fd1610be6565b610fe581610fdf8454610ec3565b84610f68565b602080601f83116001811461101a57600084156110025750858301515b600019600386901b1c1916600185901b178555610fae565b600085815260208120601f198616915b828110156110495788860151825594840194600190910190840161102a565b50858210156110675787850151600019600388901b60f8161c191681555b5050505050600190811b01905550565b60006001820161108957611089610f20565b5060010190565b81810381811115610f4957610f49610f20565b634e487b7160e01b600052603260045260246000fdfea2646970667358221220f2c671ce95779e2971911ffe901d3f0bd1fb339235702a0b7f98702789828a1664736f6c63430008110033",
  "linkReferences": {},
  "deployedLinkReferences": {}
}