{
  "_format": "hh-sol-artifact-1",
  "contractName": "Crowdfunding",
  "sourceName": "contracts/Crowdfunding.sol",
  "abi": [
    {
      "inputs": [
        {
          "internalType": "address",
          "name": "_ktyTokenAddress",
          "type": "address"
        }
      ],
      "stateMutability": "nonpayable",
      "type": "constructor"
    },
    {
      "inputs": [
        {
          "internalType": "uint256",
          "name": "",
          "type": "uint256"
        }
      ],
      "name": "campaigns",
      "outputs": [
        {
          "internalType": "address",
          "name": "owner",
          "type": "address"
        },
        {
          "internalType": "string",
          "name": "title",
          "type": "string"
        },
        {
          "internalType": "string",
          "name": "description",
          "type": "string"
        },
        {
          "internalType": "uint256",
          "name": "target",
          "type": "uint256"
        },
        {
          "internalType": "uint256",
          "name": "amountCollected",
          "type": "uint256"
        },
        {
          "internalType": "string",
          "name": "images",
          "type": "string"
        }
      ],
      "stateMutability": "view",
      "type": "function"
    },
    {
      "inputs": [
        {
          "internalType": "string",
          "name": "_title",
          "type": "string"
        },
        {
          "internalType": "string",
          "name": "_description",
          "type": "string"
        },
        {
          "internalType": "uint256",
          "name": "_target",
          "type": "uint256"
        },
        {
          "internalType": "string",
          "name": "_images",
          "type": "string"
        },
        {
          "components": [
            {
              "internalType": "uint256",
              "name": "id",
              "type": "uint256"
            },
            {
              "internalType": "uint256",
              "name": "campaignId",
              "type": "uint256"
            },
            {
              "internalType": "string",
              "name": "milestonetitle",
              "type": "string"
            },
            {
              "internalType": "string",
              "name": "milestonedescription",
              "type": "string"
            },
            {
              "internalType": "uint256",
              "name": "targetAmt",
              "type": "uint256"
            },
            {
              "internalType": "uint256",
              "name": "startDate",
              "type": "uint256"
            },
            {
              "internalType": "uint256",
              "name": "endDate",
              "type": "uint256"
            }
          ],
          "internalType": "struct Crowdfunding.Milestone[]",
          "name": "_milestones",
          "type": "tuple[]"
        }
      ],
      "name": "createCampaign",
      "outputs": [
        {
          "internalType": "uint256",
          "name": "",
          "type": "uint256"
        }
      ],
      "stateMutability": "nonpayable",
      "type": "function"
    },
    {
      "inputs": [
        {
          "internalType": "uint256",
          "name": "_id",
          "type": "uint256"
        },
        {
          "internalType": "uint256",
          "name": "_amount",
          "type": "uint256"
        }
      ],
      "name": "donateToCampaign",
      "outputs": [],
      "stateMutability": "nonpayable",
      "type": "function"
    },
    {
      "inputs": [],
      "name": "getCampaigns",
      "outputs": [
        {
          "components": [
            {
              "internalType": "address",
              "name": "owner",
              "type": "address"
            },
            {
              "internalType": "string",
              "name": "title",
              "type": "string"
            },
            {
              "internalType": "string",
              "name": "description",
              "type": "string"
            },
            {
              "internalType": "uint256",
              "name": "target",
              "type": "uint256"
            },
            {
              "internalType": "uint256",
              "name": "amountCollected",
              "type": "uint256"
            },
            {
              "internalType": "string",
              "name": "images",
              "type": "string"
            },
            {
              "internalType": "uint256[]",
              "name": "milestoneIds",
              "type": "uint256[]"
            }
          ],
          "internalType": "struct Crowdfunding.Campaign[]",
          "name": "",
          "type": "tuple[]"
        }
      ],
      "stateMutability": "view",
      "type": "function"
    },
    {
      "inputs": [
        {
          "internalType": "uint256",
          "name": "_campaignId",
          "type": "uint256"
        }
      ],
      "name": "getMilestones",
      "outputs": [
        {
          "components": [
            {
              "internalType": "uint256",
              "name": "id",
              "type": "uint256"
            },
            {
              "internalType": "uint256",
              "name": "campaignId",
              "type": "uint256"
            },
            {
              "internalType": "string",
              "name": "milestonetitle",
              "type": "string"
            },
            {
              "internalType": "string",
              "name": "milestonedescription",
              "type": "string"
            },
            {
              "internalType": "uint256",
              "name": "targetAmt",
              "type": "uint256"
            },
            {
              "internalType": "uint256",
              "name": "startDate",
              "type": "uint256"
            },
            {
              "internalType": "uint256",
              "name": "endDate",
              "type": "uint256"
            }
          ],
          "internalType": "struct Crowdfunding.Milestone[]",
          "name": "",
          "type": "tuple[]"
        }
      ],
      "stateMutability": "view",
      "type": "function"
    },
    {
      "inputs": [],
      "name": "ktyTokenAddress",
      "outputs": [
        {
          "internalType": "address",
          "name": "",
          "type": "address"
        }
      ],
      "stateMutability": "view",
      "type": "function"
    },
    {
      "inputs": [
        {
          "internalType": "uint256",
          "name": "",
          "type": "uint256"
        }
      ],
      "name": "milestones",
      "outputs": [
        {
          "internalType": "uint256",
          "name": "id",
          "type": "uint256"
        },
        {
          "internalType": "uint256",
          "name": "campaignId",
          "type": "uint256"
        },
        {
          "internalType": "string",
          "name": "milestonetitle",
          "type": "string"
        },
        {
          "internalType": "string",
          "name": "milestonedescription",
          "type": "string"
        },
        {
          "internalType": "uint256",
          "name": "targetAmt",
          "type": "uint256"
        },
        {
          "internalType": "uint256",
          "name": "startDate",
          "type": "uint256"
        },
        {
          "internalType": "uint256",
          "name": "endDate",
          "type": "uint256"
        }
      ],
      "stateMutability": "view",
      "type": "function"
    },
    {
      "inputs": [],
      "name": "numberOfCampaigns",
      "outputs": [
        {
          "internalType": "uint256",
          "name": "",
          "type": "uint256"
        }
      ],
      "stateMutability": "view",
      "type": "function"
    },
    {
      "inputs": [],
      "name": "numberOfMilestones",
      "outputs": [
        {
          "internalType": "uint256",
          "name": "",
          "type": "uint256"
        }
      ],
      "stateMutability": "view",
      "type": "function"
    }
  ],
  "bytecode": "0x60806040526000600255600060035534801561001a57600080fd5b506040516115433803806115438339810160408190526100399161005e565b600480546001600160a01b0319166001600160a01b039290921691909117905561008e565b60006020828403121561007057600080fd5b81516001600160a01b038116811461008757600080fd5b9392505050565b6114a68061009d6000396000f3fe608060405234801561001057600080fd5b50600436106100935760003560e01c806342c549c01161006657806342c549c014610101578063a6b0363314610121578063c81196da14610136578063e86be95d1461013f578063e89e4ed61461016a57600080fd5b806307ca140d14610098578063141961bc146100b45780631fdea999146100d95780632b7216e5146100ec575b600080fd5b6100a160025481565b6040519081526020015b60405180910390f35b6100c76100c2366004610cfa565b610190565b6040516100ab96959493929190610d59565b6100a16100e7366004610e9c565b610367565b6100ff6100fa36600461107a565b610537565b005b61011461010f366004610cfa565b6105b9565b6040516100ab919061109c565b61012961087d565b6040516100ab9190611191565b6100a160035481565b600454610152906001600160a01b031681565b6040516001600160a01b0390911681526020016100ab565b61017d610178366004610cfa565b610bae565b6040516100ab979695949392919061126b565b600060208190529081526040902080546001820180546001600160a01b0390921692916101bc906112bc565b80601f01602080910402602001604051908101604052809291908181526020018280546101e8906112bc565b80156102355780601f1061020a57610100808354040283529160200191610235565b820191906000526020600020905b81548152906001019060200180831161021857829003601f168201915b50505050509080600201805461024a906112bc565b80601f0160208091040260200160405190810160405280929190818152602001828054610276906112bc565b80156102c35780601f10610298576101008083540402835291602001916102c3565b820191906000526020600020905b8154815290600101906020018083116102a657829003601f168201915b5050505050908060030154908060040154908060050180546102e4906112bc565b80601f0160208091040260200160405190810160405280929190818152602001828054610310906112bc565b801561035d5780601f106103325761010080835404028352916020019161035d565b820191906000526020600020905b81548152906001019060200180831161034057829003601f168201915b5050505050905086565b600254600090815260208190526040812080546001600160a01b0319163317815560018101610396888261133f565b50600281016103a5878261133f565b506003810185905560006004820155600581016103c2858261133f565b5060005b8351811015610507576003546000818152600160208190526040909120918255600254908201558451859083908110610401576104016113ff565b60200260200101516040015181600201908161041d919061133f565b50848281518110610430576104306113ff565b60200260200101516060015181600301908161044c919061133f565b5084828151811061045f5761045f6113ff565b6020026020010151608001518160040181905550848281518110610485576104856113ff565b602002602001015160a0015181600501819055508482815181106104ab576104ab6113ff565b60209081029190910181015160c001516006808401919091556003805491860180546001810182556000918252938120909301919091558054916104ee8361142b565b91905055505080806104ff9061142b565b9150506103c6565b50600280549060006105188361142b565b9190505550600160025461052c9190611444565b979650505050505050565b600254821061058c5760405162461bcd60e51b815260206004820152601760248201527f43616d706169676e20646f6573206e6f74206578697374000000000000000000604482015260640160405180910390fd5b6000828152602081905260408120600481018054919284926105af90849061145d565b9091555050505050565b60008181526020818152604080832060060180548251818502810185019093528083526060949383018282801561060f57602002820191906000526020600020905b8154815260200190600101908083116105fb575b505050505090506000815167ffffffffffffffff81111561063257610632610dbc565b6040519080825280602002602001820160405280156106a357816020015b6106906040518060e00160405280600081526020016000815260200160608152602001606081526020016000815260200160008152602001600081525090565b8152602001906001900390816106505790505b50905060005b8251811015610875576000600160008584815181106106ca576106ca6113ff565b602002602001015181526020019081526020016000209050806040518060e00160405290816000820154815260200160018201548152602001600282018054610712906112bc565b80601f016020809104026020016040519081016040528092919081815260200182805461073e906112bc565b801561078b5780601f106107605761010080835404028352916020019161078b565b820191906000526020600020905b81548152906001019060200180831161076e57829003601f168201915b505050505081526020016003820180546107a4906112bc565b80601f01602080910402602001604051908101604052809291908181526020018280546107d0906112bc565b801561081d5780601f106107f25761010080835404028352916020019161081d565b820191906000526020600020905b81548152906001019060200180831161080057829003601f168201915b505050505081526020016004820154815260200160058201548152602001600682015481525050838381518110610856576108566113ff565b602002602001018190525050808061086d9061142b565b9150506106a9565b509392505050565b6060600060025467ffffffffffffffff81111561089c5761089c610dbc565b60405190808252806020026020018201604052801561091657816020015b6109036040518060e0016040528060006001600160a01b031681526020016060815260200160608152602001600081526020016000815260200160608152602001606081525090565b8152602001906001900390816108ba5790505b50905060005b600254811015610ba85760008181526020818152604091829020825160e0810190935280546001600160a01b0316835260018101805491939284929084019190610965906112bc565b80601f0160208091040260200160405190810160405280929190818152602001828054610991906112bc565b80156109de5780601f106109b3576101008083540402835291602001916109de565b820191906000526020600020905b8154815290600101906020018083116109c157829003601f168201915b505050505081526020016002820180546109f7906112bc565b80601f0160208091040260200160405190810160405280929190818152602001828054610a23906112bc565b8015610a705780601f10610a4557610100808354040283529160200191610a70565b820191906000526020600020905b815481529060010190602001808311610a5357829003601f168201915b505050505081526020016003820154815260200160048201548152602001600582018054610a9d906112bc565b80601f0160208091040260200160405190810160405280929190818152602001828054610ac9906112bc565b8015610b165780601f10610aeb57610100808354040283529160200191610b16565b820191906000526020600020905b815481529060010190602001808311610af957829003601f168201915b5050505050815260200160068201805480602002602001604051908101604052809291908181526020018280548015610b6e57602002820191906000526020600020905b815481526020019060010190808311610b5a575b505050505081525050838381518110610b8957610b896113ff565b6020026020010181905250508080610ba09061142b565b91505061091c565b50919050565b6001602081905260009182526040909120805491810154600282018054919291610bd7906112bc565b80601f0160208091040260200160405190810160405280929190818152602001828054610c03906112bc565b8015610c505780601f10610c2557610100808354040283529160200191610c50565b820191906000526020600020905b815481529060010190602001808311610c3357829003601f168201915b505050505090806003018054610c65906112bc565b80601f0160208091040260200160405190810160405280929190818152602001828054610c91906112bc565b8015610cde5780601f10610cb357610100808354040283529160200191610cde565b820191906000526020600020905b815481529060010190602001808311610cc157829003601f168201915b5050505050908060040154908060050154908060060154905087565b600060208284031215610d0c57600080fd5b5035919050565b6000815180845260005b81811015610d3957602081850181015186830182015201610d1d565b506000602082860101526020601f19601f83011685010191505092915050565b6001600160a01b038716815260c060208201819052600090610d7d90830188610d13565b8281036040840152610d8f8188610d13565b905085606084015284608084015282810360a0840152610daf8185610d13565b9998505050505050505050565b634e487b7160e01b600052604160045260246000fd5b60405160e0810167ffffffffffffffff81118282101715610df557610df5610dbc565b60405290565b604051601f8201601f1916810167ffffffffffffffff81118282101715610e2457610e24610dbc565b604052919050565b600082601f830112610e3d57600080fd5b813567ffffffffffffffff811115610e5757610e57610dbc565b610e6a601f8201601f1916602001610dfb565b818152846020838601011115610e7f57600080fd5b816020850160208301376000918101602001919091529392505050565b600080600080600060a08688031215610eb457600080fd5b67ffffffffffffffff8087351115610ecb57600080fd5b610ed88888358901610e2c565b95508060208801351115610eeb57600080fd5b610efb8860208901358901610e2c565b9450604087013593508060608801351115610f1557600080fd5b610f258860608901358901610e2c565b92508060808801351115610f3857600080fd5b6080870135870188601f820112610f4e57600080fd5b8181351115610f5f57610f5f610dbc565b610f6f6020823560051b01610dfb565b81358082526020808301929160051b8401018b1015610f8d57600080fd5b602083015b6020843560051b850101811015611068578481351115610fb157600080fd5b8035840160e0818e03601f19011215610fc957600080fd5b610fd1610dd2565b60208201358152604082013560208201528660608301351115610ff357600080fd5b6110068e60206060850135850101610e2c565b6040820152866080830135111561101c57600080fd5b61102f8e60206080850135850101610e2c565b606082015260a0820135608082015260c082013560a082015260e082013560c08201528085525050602083019250602081019050610f92565b50809450505050509295509295909350565b6000806040838503121561108d57600080fd5b50508035926020909101359150565b60006020808301818452808551808352604092508286019150828160051b87010184880160005b8381101561114857603f19898403018552815160e08151855288820151898601528782015181898701526110f982870182610d13565b915050606080830151868303828801526111138382610d13565b6080858101519089015260a0808601519089015260c094850151949097019390935250505093860193908601906001016110c3565b509098975050505050505050565b600081518084526020808501945080840160005b838110156111865781518752958201959082019060010161116a565b509495945050505050565b60006020808301818452808551808352604092508286019150828160051b87010184880160005b8381101561114857888303603f19018552815180516001600160a01b031684528781015160e0898601819052906111f182870182610d13565b91505087820151858203898701526112098282610d13565b9150506060808301518187015250608080830151818701525060a080830151868303828801526112398382610d13565b9250505060c080830151925085820381870152506112578183611156565b9689019694505050908601906001016111b8565b87815286602082015260e06040820152600061128a60e0830188610d13565b828103606084015261129c8188610d13565b6080840196909652505060a081019290925260c090910152949350505050565b600181811c908216806112d057607f821691505b602082108103610ba857634e487b7160e01b600052602260045260246000fd5b601f82111561133a57600081815260208120601f850160051c810160208610156113175750805b601f850160051c820191505b8181101561133657828155600101611323565b5050505b505050565b815167ffffffffffffffff81111561135957611359610dbc565b61136d8161136784546112bc565b846112f0565b602080601f8311600181146113a2576000841561138a5750858301515b600019600386901b1c1916600185901b178555611336565b600085815260208120601f198616915b828110156113d1578886015182559484019460019091019084016113b2565b50858210156113ef5787850151600019600388901b60f8161c191681555b5050505050600190811b01905550565b634e487b7160e01b600052603260045260246000fd5b634e487b7160e01b600052601160045260246000fd5b60006001820161143d5761143d611415565b5060010190565b8181038181111561145757611457611415565b92915050565b808201808211156114575761145761141556fea2646970667358221220ffbfc6b3ecec9dfef39f1514d62ae05deb11a65d28813350c63f73e7b4ca82a964736f6c63430008110033",
  "linkReferences": {},
  "deployedLinkReferences": {}
}