{
  "_format": "hh-sol-artifact-1",
  "contractName": "Crowdfunding",
  "sourceName": "contracts/Crowdfunding.sol",
  "abi": [
    {
      "inputs": [
        {
          "internalType": "address",
          "name": "_defaultAdmin",
          "type": "address"
        },
        {
          "internalType": "string",
          "name": "_name",
          "type": "string"
        },
        {
          "internalType": "string",
          "name": "_symbol",
          "type": "string"
        }
      ],
      "stateMutability": "nonpayable",
      "type": "constructor"
    },
    {
      "inputs": [],
      "name": "ContractMetadataUnauthorized",
      "type": "error"
    },
    {
      "inputs": [],
      "name": "OwnableUnauthorized",
      "type": "error"
    },
    {
      "anonymous": false,
      "inputs": [
        {
          "indexed": true,
          "internalType": "address",
          "name": "owner",
          "type": "address"
        },
        {
          "indexed": true,
          "internalType": "address",
          "name": "spender",
          "type": "address"
        },
        {
          "indexed": false,
          "internalType": "uint256",
          "name": "value",
          "type": "uint256"
        }
      ],
      "name": "Approval",
      "type": "event"
    },
    {
      "anonymous": false,
      "inputs": [
        {
          "indexed": false,
          "internalType": "string",
          "name": "prevURI",
          "type": "string"
        },
        {
          "indexed": false,
          "internalType": "string",
          "name": "newURI",
          "type": "string"
        }
      ],
      "name": "ContractURIUpdated",
      "type": "event"
    },
    {
      "anonymous": false,
      "inputs": [
        {
          "indexed": true,
          "internalType": "address",
          "name": "delegator",
          "type": "address"
        },
        {
          "indexed": true,
          "internalType": "address",
          "name": "fromDelegate",
          "type": "address"
        },
        {
          "indexed": true,
          "internalType": "address",
          "name": "toDelegate",
          "type": "address"
        }
      ],
      "name": "DelegateChanged",
      "type": "event"
    },
    {
      "anonymous": false,
      "inputs": [
        {
          "indexed": true,
          "internalType": "address",
          "name": "delegate",
          "type": "address"
        },
        {
          "indexed": false,
          "internalType": "uint256",
          "name": "previousBalance",
          "type": "uint256"
        },
        {
          "indexed": false,
          "internalType": "uint256",
          "name": "newBalance",
          "type": "uint256"
        }
      ],
      "name": "DelegateVotesChanged",
      "type": "event"
    },
    {
      "anonymous": false,
      "inputs": [
        {
          "indexed": true,
          "internalType": "address",
          "name": "prevOwner",
          "type": "address"
        },
        {
          "indexed": true,
          "internalType": "address",
          "name": "newOwner",
          "type": "address"
        }
      ],
      "name": "OwnerUpdated",
      "type": "event"
    },
    {
      "anonymous": false,
      "inputs": [
        {
          "indexed": true,
          "internalType": "address",
          "name": "mintedTo",
          "type": "address"
        },
        {
          "indexed": false,
          "internalType": "uint256",
          "name": "quantityMinted",
          "type": "uint256"
        }
      ],
      "name": "TokensMinted",
      "type": "event"
    },
    {
      "anonymous": false,
      "inputs": [
        {
          "indexed": true,
          "internalType": "address",
          "name": "from",
          "type": "address"
        },
        {
          "indexed": true,
          "internalType": "address",
          "name": "to",
          "type": "address"
        },
        {
          "indexed": false,
          "internalType": "uint256",
          "name": "value",
          "type": "uint256"
        }
      ],
      "name": "Transfer",
      "type": "event"
    },
    {
      "inputs": [],
      "name": "DOMAIN_SEPARATOR",
      "outputs": [
        {
          "internalType": "bytes32",
          "name": "",
          "type": "bytes32"
        }
      ],
      "stateMutability": "view",
      "type": "function"
    },
    {
      "inputs": [
        {
          "internalType": "address",
          "name": "owner",
          "type": "address"
        },
        {
          "internalType": "address",
          "name": "spender",
          "type": "address"
        }
      ],
      "name": "allowance",
      "outputs": [
        {
          "internalType": "uint256",
          "name": "",
          "type": "uint256"
        }
      ],
      "stateMutability": "view",
      "type": "function"
    },
    {
      "inputs": [
        {
          "internalType": "address",
          "name": "spender",
          "type": "address"
        },
        {
          "internalType": "uint256",
          "name": "amount",
          "type": "uint256"
        }
      ],
      "name": "approve",
      "outputs": [
        {
          "internalType": "bool",
          "name": "",
          "type": "bool"
        }
      ],
      "stateMutability": "nonpayable",
      "type": "function"
    },
    {
      "inputs": [
        {
          "internalType": "address",
          "name": "account",
          "type": "address"
        }
      ],
      "name": "balanceOf",
      "outputs": [
        {
          "internalType": "uint256",
          "name": "",
          "type": "uint256"
        }
      ],
      "stateMutability": "view",
      "type": "function"
    },
    {
      "inputs": [
        {
          "internalType": "uint256",
          "name": "_amount",
          "type": "uint256"
        }
      ],
      "name": "burn",
      "outputs": [],
      "stateMutability": "nonpayable",
      "type": "function"
    },
    {
      "inputs": [
        {
          "internalType": "address",
          "name": "_account",
          "type": "address"
        },
        {
          "internalType": "uint256",
          "name": "_amount",
          "type": "uint256"
        }
      ],
      "name": "burnFrom",
      "outputs": [],
      "stateMutability": "nonpayable",
      "type": "function"
    },
    {
      "inputs": [
        {
          "internalType": "address",
          "name": "account",
          "type": "address"
        },
        {
          "internalType": "uint32",
          "name": "pos",
          "type": "uint32"
        }
      ],
      "name": "checkpoints",
      "outputs": [
        {
          "components": [
            {
              "internalType": "uint32",
              "name": "fromBlock",
              "type": "uint32"
            },
            {
              "internalType": "uint224",
              "name": "votes",
              "type": "uint224"
            }
          ],
          "internalType": "struct ERC20Votes.Checkpoint",
          "name": "",
          "type": "tuple"
        }
      ],
      "stateMutability": "view",
      "type": "function"
    },
    {
      "inputs": [],
      "name": "contractURI",
      "outputs": [
        {
          "internalType": "string",
          "name": "",
          "type": "string"
        }
      ],
      "stateMutability": "view",
      "type": "function"
    },
    {
      "inputs": [],
      "name": "decimals",
      "outputs": [
        {
          "internalType": "uint8",
          "name": "",
          "type": "uint8"
        }
      ],
      "stateMutability": "view",
      "type": "function"
    },
    {
      "inputs": [
        {
          "internalType": "address",
          "name": "spender",
          "type": "address"
        },
        {
          "internalType": "uint256",
          "name": "subtractedValue",
          "type": "uint256"
        }
      ],
      "name": "decreaseAllowance",
      "outputs": [
        {
          "internalType": "bool",
          "name": "",
          "type": "bool"
        }
      ],
      "stateMutability": "nonpayable",
      "type": "function"
    },
    {
      "inputs": [
        {
          "internalType": "address",
          "name": "delegatee",
          "type": "address"
        }
      ],
      "name": "delegate",
      "outputs": [],
      "stateMutability": "nonpayable",
      "type": "function"
    },
    {
      "inputs": [
        {
          "internalType": "address",
          "name": "delegatee",
          "type": "address"
        },
        {
          "internalType": "uint256",
          "name": "nonce",
          "type": "uint256"
        },
        {
          "internalType": "uint256",
          "name": "expiry",
          "type": "uint256"
        },
        {
          "internalType": "uint8",
          "name": "v",
          "type": "uint8"
        },
        {
          "internalType": "bytes32",
          "name": "r",
          "type": "bytes32"
        },
        {
          "internalType": "bytes32",
          "name": "s",
          "type": "bytes32"
        }
      ],
      "name": "delegateBySig",
      "outputs": [],
      "stateMutability": "nonpayable",
      "type": "function"
    },
    {
      "inputs": [
        {
          "internalType": "address",
          "name": "account",
          "type": "address"
        }
      ],
      "name": "delegates",
      "outputs": [
        {
          "internalType": "address",
          "name": "",
          "type": "address"
        }
      ],
      "stateMutability": "view",
      "type": "function"
    },
    {
      "inputs": [
        {
          "internalType": "uint256",
          "name": "blockNumber",
          "type": "uint256"
        }
      ],
      "name": "getPastTotalSupply",
      "outputs": [
        {
          "internalType": "uint256",
          "name": "",
          "type": "uint256"
        }
      ],
      "stateMutability": "view",
      "type": "function"
    },
    {
      "inputs": [
        {
          "internalType": "address",
          "name": "account",
          "type": "address"
        },
        {
          "internalType": "uint256",
          "name": "blockNumber",
          "type": "uint256"
        }
      ],
      "name": "getPastVotes",
      "outputs": [
        {
          "internalType": "uint256",
          "name": "",
          "type": "uint256"
        }
      ],
      "stateMutability": "view",
      "type": "function"
    },
    {
      "inputs": [
        {
          "internalType": "address",
          "name": "account",
          "type": "address"
        }
      ],
      "name": "getVotes",
      "outputs": [
        {
          "internalType": "uint256",
          "name": "",
          "type": "uint256"
        }
      ],
      "stateMutability": "view",
      "type": "function"
    },
    {
      "inputs": [
        {
          "internalType": "address",
          "name": "spender",
          "type": "address"
        },
        {
          "internalType": "uint256",
          "name": "addedValue",
          "type": "uint256"
        }
      ],
      "name": "increaseAllowance",
      "outputs": [
        {
          "internalType": "bool",
          "name": "",
          "type": "bool"
        }
      ],
      "stateMutability": "nonpayable",
      "type": "function"
    },
    {
      "inputs": [
        {
          "internalType": "address",
          "name": "_to",
          "type": "address"
        },
        {
          "internalType": "uint256",
          "name": "_amount",
          "type": "uint256"
        }
      ],
      "name": "mintTo",
      "outputs": [],
      "stateMutability": "nonpayable",
      "type": "function"
    },
    {
      "inputs": [
        {
          "internalType": "bytes[]",
          "name": "data",
          "type": "bytes[]"
        }
      ],
      "name": "multicall",
      "outputs": [
        {
          "internalType": "bytes[]",
          "name": "results",
          "type": "bytes[]"
        }
      ],
      "stateMutability": "nonpayable",
      "type": "function"
    },
    {
      "inputs": [],
      "name": "name",
      "outputs": [
        {
          "internalType": "string",
          "name": "",
          "type": "string"
        }
      ],
      "stateMutability": "view",
      "type": "function"
    },
    {
      "inputs": [
        {
          "internalType": "address",
          "name": "owner",
          "type": "address"
        }
      ],
      "name": "nonces",
      "outputs": [
        {
          "internalType": "uint256",
          "name": "",
          "type": "uint256"
        }
      ],
      "stateMutability": "view",
      "type": "function"
    },
    {
      "inputs": [
        {
          "internalType": "address",
          "name": "account",
          "type": "address"
        }
      ],
      "name": "numCheckpoints",
      "outputs": [
        {
          "internalType": "uint32",
          "name": "",
          "type": "uint32"
        }
      ],
      "stateMutability": "view",
      "type": "function"
    },
    {
      "inputs": [],
      "name": "owner",
      "outputs": [
        {
          "internalType": "address",
          "name": "",
          "type": "address"
        }
      ],
      "stateMutability": "view",
      "type": "function"
    },
    {
      "inputs": [
        {
          "internalType": "address",
          "name": "owner",
          "type": "address"
        },
        {
          "internalType": "address",
          "name": "spender",
          "type": "address"
        },
        {
          "internalType": "uint256",
          "name": "value",
          "type": "uint256"
        },
        {
          "internalType": "uint256",
          "name": "deadline",
          "type": "uint256"
        },
        {
          "internalType": "uint8",
          "name": "v",
          "type": "uint8"
        },
        {
          "internalType": "bytes32",
          "name": "r",
          "type": "bytes32"
        },
        {
          "internalType": "bytes32",
          "name": "s",
          "type": "bytes32"
        }
      ],
      "name": "permit",
      "outputs": [],
      "stateMutability": "nonpayable",
      "type": "function"
    },
    {
      "inputs": [
        {
          "internalType": "string",
          "name": "_uri",
          "type": "string"
        }
      ],
      "name": "setContractURI",
      "outputs": [],
      "stateMutability": "nonpayable",
      "type": "function"
    },
    {
      "inputs": [
        {
          "internalType": "address",
          "name": "_newOwner",
          "type": "address"
        }
      ],
      "name": "setOwner",
      "outputs": [],
      "stateMutability": "nonpayable",
      "type": "function"
    },
    {
      "inputs": [],
      "name": "symbol",
      "outputs": [
        {
          "internalType": "string",
          "name": "",
          "type": "string"
        }
      ],
      "stateMutability": "view",
      "type": "function"
    },
    {
      "inputs": [],
      "name": "totalSupply",
      "outputs": [
        {
          "internalType": "uint256",
          "name": "",
          "type": "uint256"
        }
      ],
      "stateMutability": "view",
      "type": "function"
    },
    {
      "inputs": [
        {
          "internalType": "address",
          "name": "to",
          "type": "address"
        },
        {
          "internalType": "uint256",
          "name": "amount",
          "type": "uint256"
        }
      ],
      "name": "transfer",
      "outputs": [
        {
          "internalType": "bool",
          "name": "",
          "type": "bool"
        }
      ],
      "stateMutability": "nonpayable",
      "type": "function"
    },
    {
      "inputs": [
        {
          "internalType": "address",
          "name": "from",
          "type": "address"
        },
        {
          "internalType": "address",
          "name": "to",
          "type": "address"
        },
        {
          "internalType": "uint256",
          "name": "amount",
          "type": "uint256"
        }
      ],
      "name": "transferFrom",
      "outputs": [
        {
          "internalType": "bool",
          "name": "",
          "type": "bool"
        }
      ],
      "stateMutability": "nonpayable",
      "type": "function"
    }
  ],
  "bytecode": "0x6101006040527f6e71edae12b1b97f4d1f60370fef10105fa2faae0126114a169c64845d6126c960e0523480156200003657600080fd5b5060405162002d7638038062002d768339810160408190526200005991620002f7565b8282828181818160056200006e838262000410565b5060066200007d828262000410565b50504660a052503060c05262000092620000af565b60805250620000a390508362000146565b505050505050620004dc565b60007f8b73c3c69bb8fe3d512ecc4cf759cc79239f7b179b0ffacaa9a75d522b39400f620000dc62000198565b80516020918201206040805192830193909352918101919091527fc89efdaa54c0f20c7adf612882df0950f5a951637e0307cdcb4c672f298b8bc660608201524660808201523060a082015260c00160405160208183030381529060405280519060200120905090565b600180546001600160a01b038381166001600160a01b0319831681179093556040519116919082907f8292fce18fa69edf4db7b94ea2e58241df0ae57f97e0a6c9b29067028bf92d7690600090a35050565b606060058054620001a99062000381565b80601f0160208091040260200160405190810160405280929190818152602001828054620001d79062000381565b8015620002285780601f10620001fc5761010080835404028352916020019162000228565b820191906000526020600020905b8154815290600101906020018083116200020a57829003601f168201915b5050505050905090565b634e487b7160e01b600052604160045260246000fd5b600082601f8301126200025a57600080fd5b81516001600160401b038082111562000277576200027762000232565b604051601f8301601f19908116603f01168101908282118183101715620002a257620002a262000232565b81604052838152602092508683858801011115620002bf57600080fd5b600091505b83821015620002e35785820183015181830184015290820190620002c4565b600093810190920192909252949350505050565b6000806000606084860312156200030d57600080fd5b83516001600160a01b03811681146200032557600080fd5b60208501519093506001600160401b03808211156200034357600080fd5b620003518783880162000248565b935060408601519150808211156200036857600080fd5b50620003778682870162000248565b9150509250925092565b600181811c908216806200039657607f821691505b602082108103620003b757634e487b7160e01b600052602260045260246000fd5b50919050565b601f8211156200040b57600081815260208120601f850160051c81016020861015620003e65750805b601f850160051c820191505b818110156200040757828155600101620003f2565b5050505b505050565b81516001600160401b038111156200042c576200042c62000232565b62000444816200043d845462000381565b84620003bd565b602080601f8311600181146200047c5760008415620004635750858301515b600019600386901b1c1916600185901b17855562000407565b600085815260208120601f198616915b82811015620004ad578886015182559484019460019091019084016200048c565b5085821015620004cc5787850151600019600388901b60f8161c191681555b5050505050600190811b01905550565b60805160a05160c05160e051612860620005166000396000610e16015260006105af015260006105d90152600061060301526128606000f3fe608060405234801561001057600080fd5b50600436106101da5760003560e01c806379cc679011610104578063a457c2d7116100a2578063d505accf11610071578063d505accf14610436578063dd62ed3e14610449578063e8a3d4851461045c578063f1127ed81461046457600080fd5b8063a457c2d7146103dd578063a9059cbb146103f0578063ac9650d814610403578063c3cda5201461042357600080fd5b80638e539e8c116100de5780638e539e8c1461039c578063938e3d7b146103af57806395d89b41146103c25780639ab24eb0146103ca57600080fd5b806379cc6790146103655780637ecebe00146103785780638da5cb5b1461038b57600080fd5b8063395093511161017c578063587cde1e1161014b578063587cde1e146102bd5780635c19a95c146103015780636fcfff451461031457806370a082311461033c57600080fd5b806339509351146102715780633a46b1a81461028457806342966c6814610297578063449a52f8146102aa57600080fd5b806318160ddd116101b857806318160ddd1461023557806323b872dd14610247578063313ce5671461025a5780633644e5151461026957600080fd5b806306fdde03146101df578063095ea7b3146101fd57806313af403514610220575b600080fd5b6101e76104a1565b6040516101f491906121b3565b60405180910390f35b61021061020b3660046121e2565b610533565b60405190151581526020016101f4565b61023361022e36600461220c565b61054d565b005b6004545b6040519081526020016101f4565b610210610255366004612227565b61057e565b604051601281526020016101f4565b6102396105a2565b61021061027f3660046121e2565b610632565b6102396102923660046121e2565b610671565b6102336102a5366004612263565b6106f0565b6102336102b83660046121e2565b610747565b6102e96102cb36600461220c565b6001600160a01b039081166000908152600860205260409020541690565b6040516001600160a01b0390911681526020016101f4565b61023361030f36600461220c565b6107f0565b61032761032236600461220c565b6107fa565b60405163ffffffff90911681526020016101f4565b61023961034a36600461220c565b6001600160a01b031660009081526002602052604090205490565b6102336103733660046121e2565b61081c565b61023961038636600461220c565b610912565b6001546001600160a01b03166102e9565b6102396103aa366004612263565b610930565b6102336103bd366004612292565b61098c565b6101e76109ba565b6102396103d836600461220c565b6109c9565b6102106103eb3660046121e2565b610a50565b6102106103fe3660046121e2565b610ae2565b610416610411366004612343565b610af0565b6040516101f491906123b8565b61023361043136600461242b565b610c60565b610233610444366004612483565b610dc2565b6102396104573660046124ed565b610f28565b6101e7610f53565b610477610472366004612520565b610fe1565b60408051825163ffffffff1681526020928301516001600160e01b031692810192909252016101f4565b6060600580546104b090612560565b80601f01602080910402602001604051908101604052809291908181526020018280546104dc90612560565b80156105295780601f106104fe57610100808354040283529160200191610529565b820191906000526020600020905b81548152906001019060200180831161050c57829003601f168201915b5050505050905090565b600033610541818585611065565b60019150505b92915050565b610555611189565b610572576040516316ccb9cb60e11b815260040160405180910390fd5b61057b816111b6565b50565b60003361058c858285611208565b610597858585611282565b506001949350505050565b6000306001600160a01b037f0000000000000000000000000000000000000000000000000000000000000000161480156105fb57507f000000000000000000000000000000000000000000000000000000000000000046145b1561062557507f000000000000000000000000000000000000000000000000000000000000000090565b61062d611456565b905090565b3360008181526003602090815260408083206001600160a01b0387168452909152812054909190610541908290869061066c9087906125aa565b611065565b60004382106106c75760405162461bcd60e51b815260206004820152601f60248201527f4552433230566f7465733a20626c6f636b206e6f7420796574206d696e65640060448201526064015b60405180910390fd5b6001600160a01b03831660009081526009602052604090206106e990836114eb565b9392505050565b806106fa3361034a565b101561073d5760405162461bcd60e51b81526020600482015260126024820152716e6f7420656e6f7567682062616c616e636560701b60448201526064016106be565b61057b33826115a8565b61074f611189565b61079b5760405162461bcd60e51b815260206004820152601760248201527f4e6f7420617574686f72697a656420746f206d696e742e00000000000000000060448201526064016106be565b806000036107e25760405162461bcd60e51b815260206004820152601460248201527326b4b73a34b733903d32b937903a37b5b2b7399760611b60448201526064016106be565b6107ec82826115c0565b5050565b61057b338261164a565b6001600160a01b038116600090815260096020526040812054610547906116c4565b610824611189565b6108705760405162461bcd60e51b815260206004820152601760248201527f4e6f7420617574686f72697a656420746f206275726e2e00000000000000000060448201526064016106be565b80610890836001600160a01b031660009081526002602052604090205490565b10156108d35760405162461bcd60e51b81526020600482015260126024820152716e6f7420656e6f7567682062616c616e636560701b60448201526064016106be565b6000816108e08433610f28565b6108ea91906125bd565b90506108f883336000611065565b610903833383611065565b61090d83836115a8565b505050565b6001600160a01b038116600090815260076020526040812054610547565b60004382106109815760405162461bcd60e51b815260206004820152601f60248201527f4552433230566f7465733a20626c6f636b206e6f7420796574206d696e65640060448201526064016106be565b610547600a836114eb565b610994611189565b6109b157604051639f7f092560e01b815260040160405180910390fd5b61057b8161172d565b6060600680546104b090612560565b6001600160a01b0381166000908152600960205260408120548015610a3d576001600160a01b0383166000908152600960205260409020610a0b6001836125bd565b81548110610a1b57610a1b6125d0565b60009182526020909120015464010000000090046001600160e01b0316610a40565b60005b6001600160e01b03169392505050565b3360008181526003602090815260408083206001600160a01b038716845290915281205490919083811015610ad55760405162461bcd60e51b815260206004820152602560248201527f45524332303a2064656372656173656420616c6c6f77616e63652062656c6f77604482015264207a65726f60d81b60648201526084016106be565b6105978286868403611065565b600033610541818585611282565b60608167ffffffffffffffff811115610b0b57610b0b61227c565b604051908082528060200260200182016040528015610b3e57816020015b6060815260200190600190039081610b295790505b509050336000805b84811015610c57578115610bc557610ba330878784818110610b6a57610b6a6125d0565b9050602002810190610b7c91906125e6565b86604051602001610b8f93929190612634565b604051602081830303815290604052611808565b848281518110610bb557610bb56125d0565b6020026020010181905250610c45565b610c2730878784818110610bdb57610bdb6125d0565b9050602002810190610bed91906125e6565b8080601f01602080910402602001604051908101604052809392919081815260200183838082843760009201919091525061180892505050565b848281518110610c3957610c396125d0565b60200260200101819052505b80610c4f8161265a565b915050610b46565b50505092915050565b83421115610cb05760405162461bcd60e51b815260206004820152601d60248201527f4552433230566f7465733a207369676e6174757265206578706972656400000060448201526064016106be565b604080517fe48329057bfd03d55e49b547132e39cffd9c1820ad7b9d4c5307691425d15adf60208201526001600160a01b03881691810191909152606081018690526080810185905260009060a0016040516020818303038152906040528051906020012090506000610d44610d246105a2565b8360405161190160f01b8152600281019290925260228201526042902090565b90506000610d548287878761182d565b9050610d5f81611857565b8814610dad5760405162461bcd60e51b815260206004820152601960248201527f4552433230566f7465733a20696e76616c6964206e6f6e63650000000000000060448201526064016106be565b610db7818a61164a565b505050505050505050565b83421115610e125760405162461bcd60e51b815260206004820152601d60248201527f45524332305065726d69743a206578706972656420646561646c696e6500000060448201526064016106be565b60007f0000000000000000000000000000000000000000000000000000000000000000888888610e418c611857565b6040805160208101969096526001600160a01b0394851690860152929091166060840152608083015260a082015260c0810186905260e0016040516020818303038152906040528051906020012090506000610e9e610d246105a2565b90506000610eae8287878761182d565b9050896001600160a01b0316816001600160a01b031614610f115760405162461bcd60e51b815260206004820152601e60248201527f45524332305065726d69743a20696e76616c6964207369676e6174757265000060448201526064016106be565b610f1c8a8a8a611065565b50505050505050505050565b6001600160a01b03918216600090815260036020908152604080832093909416825291909152205490565b60008054610f6090612560565b80601f0160208091040260200160405190810160405280929190818152602001828054610f8c90612560565b8015610fd95780601f10610fae57610100808354040283529160200191610fd9565b820191906000526020600020905b815481529060010190602001808311610fbc57829003601f168201915b505050505081565b60408051808201909152600080825260208201526001600160a01b0383166000908152600960205260409020805463ffffffff8416908110611025576110256125d0565b60009182526020918290206040805180820190915291015463ffffffff8116825264010000000090046001600160e01b0316918101919091529392505050565b6001600160a01b0383166110c75760405162461bcd60e51b8152602060048201526024808201527f45524332303a20617070726f76652066726f6d20746865207a65726f206164646044820152637265737360e01b60648201526084016106be565b6001600160a01b0382166111285760405162461bcd60e51b815260206004820152602260248201527f45524332303a20617070726f766520746f20746865207a65726f206164647265604482015261737360f01b60648201526084016106be565b6001600160a01b0383811660008181526003602090815260408083209487168084529482529182902085905590518481527f8c5be1e5ebec7d5bd14f71427d1e84f3dd0314c0f7b2291e5b200ac8c7c3b925910160405180910390a3505050565b600061119d6001546001600160a01b031690565b6001600160a01b0316336001600160a01b031614905090565b600180546001600160a01b038381166001600160a01b0319831681179093556040519116919082907f8292fce18fa69edf4db7b94ea2e58241df0ae57f97e0a6c9b29067028bf92d7690600090a35050565b60006112148484610f28565b9050600019811461127c578181101561126f5760405162461bcd60e51b815260206004820152601d60248201527f45524332303a20696e73756666696369656e7420616c6c6f77616e636500000060448201526064016106be565b61127c8484848403611065565b50505050565b6001600160a01b0383166112e65760405162461bcd60e51b815260206004820152602560248201527f45524332303a207472616e736665722066726f6d20746865207a65726f206164604482015264647265737360d81b60648201526084016106be565b6001600160a01b0382166113485760405162461bcd60e51b815260206004820152602360248201527f45524332303a207472616e7366657220746f20746865207a65726f206164647260448201526265737360e81b60648201526084016106be565b6001600160a01b038316600090815260026020526040902054818110156113c05760405162461bcd60e51b815260206004820152602660248201527f45524332303a207472616e7366657220616d6f756e7420657863656564732062604482015265616c616e636560d01b60648201526084016106be565b6001600160a01b038085166000908152600260205260408082208585039055918516815290812080548492906113f79084906125aa565b92505081905550826001600160a01b0316846001600160a01b03167fddf252ad1be2c89b69c2b068fc378daa952ba7f163c4a11628f55a4df523b3ef8460405161144391815260200190565b60405180910390a361127c84848461187f565b60007f8b73c3c69bb8fe3d512ecc4cf759cc79239f7b179b0ffacaa9a75d522b39400f6114816104a1565b80516020918201206040805192830193909352918101919091527fc89efdaa54c0f20c7adf612882df0950f5a951637e0307cdcb4c672f298b8bc660608201524660808201523060a082015260c00160405160208183030381529060405280519060200120905090565b8154600090815b8181101561154f57600061150682846118b1565b90508486828154811061151b5761151b6125d0565b60009182526020909120015463ffffffff16111561153b57809250611549565b6115468160016125aa565b91505b506114f2565b811561159357846115616001846125bd565b81548110611571576115716125d0565b60009182526020909120015464010000000090046001600160e01b0316611596565b60005b6001600160e01b031695945050505050565b6115b282826118cc565b61127c600a611a2183611a2d565b6115ca8282611ba6565b6004546001600160e01b03101561163c5760405162461bcd60e51b815260206004820152603060248201527f4552433230566f7465733a20746f74616c20737570706c79207269736b73206f60448201526f766572666c6f77696e6720766f74657360801b60648201526084016106be565b61127c600a611c8d83611a2d565b6001600160a01b03828116600081815260086020818152604080842080546002845282862054949093528787166001600160a01b03198416811790915590519190951694919391928592917f3134e8a2e6d97e929a7e54011ea5485d7d196dd5f0ba4d4ef95803e8e3fc257f9190a461127c828483611c99565b600063ffffffff8211156117295760405162461bcd60e51b815260206004820152602660248201527f53616665436173743a2076616c756520646f65736e27742066697420696e203360448201526532206269747360d01b60648201526084016106be565b5090565b600080805461173b90612560565b80601f016020809104026020016040519081016040528092919081815260200182805461176790612560565b80156117b45780601f10611789576101008083540402835291602001916117b4565b820191906000526020600020905b81548152906001019060200180831161179757829003601f168201915b5050505050905081600090816117ca91906126c1565b507fc9c7c3fe08b88b4df9d4d47ef47d2c43d55c025a0ba88ca442580ed9e7348a1681836040516117fc929190612781565b60405180910390a15050565b60606106e9838360405180606001604052806027815260200161280460279139611dd6565b600080600061183e87878787611e4e565b9150915061184b81611f12565b5090505b949350505050565b6001600160a01b03811660009081526007602052604090208054600181018255905b50919050565b6001600160a01b0383811660009081526008602052604080822054858416835291205461090d92918216911683611c99565b60006118c060028484186127af565b6106e9908484166125aa565b6001600160a01b03821661192c5760405162461bcd60e51b815260206004820152602160248201527f45524332303a206275726e2066726f6d20746865207a65726f206164647265736044820152607360f81b60648201526084016106be565b6001600160a01b038216600090815260026020526040902054818110156119a05760405162461bcd60e51b815260206004820152602260248201527f45524332303a206275726e20616d6f756e7420657863656564732062616c616e604482015261636560f01b60648201526084016106be565b6001600160a01b03831660009081526002602052604081208383039055600480548492906119cf9084906125bd565b90915550506040518281526000906001600160a01b038516907fddf252ad1be2c89b69c2b068fc378daa952ba7f163c4a11628f55a4df523b3ef9060200160405180910390a361090d8360008461187f565b60006106e982846125bd565b825460009081908015611a785785611a466001836125bd565b81548110611a5657611a566125d0565b60009182526020909120015464010000000090046001600160e01b0316611a7b565b60005b6001600160e01b03169250611a9483858763ffffffff16565b9150600081118015611ad257504386611aae6001846125bd565b81548110611abe57611abe6125d0565b60009182526020909120015463ffffffff16145b15611b3257611ae08261205c565b86611aec6001846125bd565b81548110611afc57611afc6125d0565b9060005260206000200160000160046101000a8154816001600160e01b0302191690836001600160e01b03160217905550611b9d565b856040518060400160405280611b47436116c4565b63ffffffff168152602001611b5b8561205c565b6001600160e01b0390811690915282546001810184556000938452602093849020835194909301519091166401000000000263ffffffff909316929092179101555b50935093915050565b6001600160a01b038216611bfc5760405162461bcd60e51b815260206004820152601f60248201527f45524332303a206d696e7420746f20746865207a65726f20616464726573730060448201526064016106be565b8060046000828254611c0e91906125aa565b90915550506001600160a01b03821660009081526002602052604081208054839290611c3b9084906125aa565b90915550506040518181526001600160a01b038316906000907fddf252ad1be2c89b69c2b068fc378daa952ba7f163c4a11628f55a4df523b3ef9060200160405180910390a36107ec6000838361187f565b60006106e982846125aa565b816001600160a01b0316836001600160a01b031614158015611cbb5750600081115b1561090d576001600160a01b03831615611d49576001600160a01b03831660009081526009602052604081208190611cf690611a2185611a2d565b91509150846001600160a01b03167fdec2bacdd2f05b59de34da9b523dff8be42e5e38e818c82fdb0bae774387a7248383604051611d3e929190918252602082015260400190565b60405180910390a250505b6001600160a01b0382161561090d576001600160a01b03821660009081526009602052604081208190611d7f90611c8d85611a2d565b91509150836001600160a01b03167fdec2bacdd2f05b59de34da9b523dff8be42e5e38e818c82fdb0bae774387a7248383604051611dc7929190918252602082015260400190565b60405180910390a25050505050565b6060600080856001600160a01b031685604051611df391906127d1565b600060405180830381855af49150503d8060008114611e2e576040519150601f19603f3d011682016040523d82523d6000602084013e611e33565b606091505b5091509150611e44868383876120c5565b9695505050505050565b6000807f7fffffffffffffffffffffffffffffff5d576e7357a4501ddfe92f46681b20a0831115611e855750600090506003611f09565b6040805160008082526020820180845289905260ff881692820192909252606081018690526080810185905260019060a0016020604051602081039080840390855afa158015611ed9573d6000803e3d6000fd5b5050604051601f1901519150506001600160a01b038116611f0257600060019250925050611f09565b9150600090505b94509492505050565b6000816004811115611f2657611f266127ed565b03611f2e5750565b6001816004811115611f4257611f426127ed565b03611f8f5760405162461bcd60e51b815260206004820152601860248201527f45434453413a20696e76616c6964207369676e6174757265000000000000000060448201526064016106be565b6002816004811115611fa357611fa36127ed565b03611ff05760405162461bcd60e51b815260206004820152601f60248201527f45434453413a20696e76616c6964207369676e6174757265206c656e6774680060448201526064016106be565b6003816004811115612004576120046127ed565b0361057b5760405162461bcd60e51b815260206004820152602260248201527f45434453413a20696e76616c6964207369676e6174757265202773272076616c604482015261756560f01b60648201526084016106be565b60006001600160e01b038211156117295760405162461bcd60e51b815260206004820152602760248201527f53616665436173743a2076616c756520646f65736e27742066697420696e20326044820152663234206269747360c81b60648201526084016106be565b6060831561213457825160000361212d576001600160a01b0385163b61212d5760405162461bcd60e51b815260206004820152601d60248201527f416464726573733a2063616c6c20746f206e6f6e2d636f6e747261637400000060448201526064016106be565b508161184f565b61184f83838151156121495781518083602001fd5b8060405162461bcd60e51b81526004016106be91906121b3565b60005b8381101561217e578181015183820152602001612166565b50506000910152565b6000815180845261219f816020860160208601612163565b601f01601f19169290920160200192915050565b6020815260006106e96020830184612187565b80356001600160a01b03811681146121dd57600080fd5b919050565b600080604083850312156121f557600080fd5b6121fe836121c6565b946020939093013593505050565b60006020828403121561221e57600080fd5b6106e9826121c6565b60008060006060848603121561223c57600080fd5b612245846121c6565b9250612253602085016121c6565b9150604084013590509250925092565b60006020828403121561227557600080fd5b5035919050565b634e487b7160e01b600052604160045260246000fd5b6000602082840312156122a457600080fd5b813567ffffffffffffffff808211156122bc57600080fd5b818401915084601f8301126122d057600080fd5b8135818111156122e2576122e261227c565b604051601f8201601f19908116603f0116810190838211818310171561230a5761230a61227c565b8160405282815287602084870101111561232357600080fd5b826020860160208301376000928101602001929092525095945050505050565b6000806020838503121561235657600080fd5b823567ffffffffffffffff8082111561236e57600080fd5b818501915085601f83011261238257600080fd5b81358181111561239157600080fd5b8660208260051b85010111156123a657600080fd5b60209290920196919550909350505050565b6000602080830181845280855180835260408601915060408160051b870101925083870160005b8281101561240d57603f198886030184526123fb858351612187565b945092850192908501906001016123df565b5092979650505050505050565b803560ff811681146121dd57600080fd5b60008060008060008060c0878903121561244457600080fd5b61244d876121c6565b955060208701359450604087013593506124696060880161241a565b92506080870135915060a087013590509295509295509295565b600080600080600080600060e0888a03121561249e57600080fd5b6124a7886121c6565b96506124b5602089016121c6565b955060408801359450606088013593506124d16080890161241a565b925060a0880135915060c0880135905092959891949750929550565b6000806040838503121561250057600080fd5b612509836121c6565b9150612517602084016121c6565b90509250929050565b6000806040838503121561253357600080fd5b61253c836121c6565b9150602083013563ffffffff8116811461255557600080fd5b809150509250929050565b600181811c9082168061257457607f821691505b60208210810361187957634e487b7160e01b600052602260045260246000fd5b634e487b7160e01b600052601160045260246000fd5b8082018082111561054757610547612594565b8181038181111561054757610547612594565b634e487b7160e01b600052603260045260246000fd5b6000808335601e198436030181126125fd57600080fd5b83018035915067ffffffffffffffff82111561261857600080fd5b60200191503681900382131561262d57600080fd5b9250929050565b8284823760609190911b6bffffffffffffffffffffffff19169101908152601401919050565b60006001820161266c5761266c612594565b5060010190565b601f82111561090d57600081815260208120601f850160051c8101602086101561269a5750805b601f850160051c820191505b818110156126b9578281556001016126a6565b505050505050565b815167ffffffffffffffff8111156126db576126db61227c565b6126ef816126e98454612560565b84612673565b602080601f831160018114612724576000841561270c5750858301515b600019600386901b1c1916600185901b1785556126b9565b600085815260208120601f198616915b8281101561275357888601518255948401946001909101908401612734565b50858210156127715787850151600019600388901b60f8161c191681555b5050505050600190811b01905550565b6040815260006127946040830185612187565b82810360208401526127a68185612187565b95945050505050565b6000826127cc57634e487b7160e01b600052601260045260246000fd5b500490565b600082516127e3818460208701612163565b9190910192915050565b634e487b7160e01b600052602160045260246000fdfe416464726573733a206c6f772d6c6576656c2064656c65676174652063616c6c206661696c6564a26469706673582212208ce535c55346b8f53ba568196f4bf0c703d29928a1cc0f380bb62da10d7d9ca664736f6c63430008110033",
  "linkReferences": {},
  "deployedLinkReferences": {}
}